:020000040000FA
:02000000802955
:080008008B1C04288B108918E1
:10001000D7238519C523851807148611090082077F
:1000200045346E34743465347234203423342034CF
:100030006F346634203462346F347834653473340A
:10004000003482072A34203474346F34203463340B
:100050006F346E34743469346E34753465340034FE
:10006000820732342D344C346F3467342034693491
:100070006E3466346F340034820749346E3476341B
:1000800061346C3469346434203449346E347034EF
:10009000753474340034820745346E3474346534F6
:1000A00072342034503461347434743465347234AE
:1000B0006E34203400348207503461347434743424
:1000C000653472346E3473343A3420340034820729
:1000D0003134323433342A343434353436342334FE
:1000E00030340034820730343134323433343434F1
:1000F00035343634373438343934003482072A34CE
:1001000042347534733479342A34003482073134FC
:100110002D344E346534773420344F3470346534A4
:1001200072346134743469346F346E340034D30003
:1001300000308A0053089F3E03188A0A8200413427
:100140006E34793420346B3465347934203474342B
:100150006F34203473347434613472347434003442
:10016000D30000308A005308B83E03188A0A820080
:1001700049346E34763461346C34693464342034F8
:100180005034613474347434653472346E342034D1
:1001900023340034D30000308A005308D23E0318C1
:1001A0008A0A820044346F346E3465340034D300DC
:1001B00000308A005308DF3E03188A0A8200203488
:1001C0005034723465347334733420342A34003438
:1001D000D30000308A005308F03E03188A0A8200D8
:1001E00044346134743465345F34463469346E3475
:1001F000693473346834653464343A3420340034F8
:10020000D30001308A005308083E03188A0A82008E
:100210005034613474347434653472346E347334ED
:100220002034533465346C34653463347434653449
:1002300064343A3420340034D30001308A00530847
:10024000243E03188A0A82005734683469347434AF
:1002500065342034523465346D34613469346E341D
:1002600069346E3467343A3420340034D3000130BA
:100270008A0053083E3E03188A0A82004F347234C3
:1002800061346E34673465342034523465346D34EF
:10029000613469346E3469346E3467343A342034EE
:1002A0000034D30001308A005308593E03188A0AEB
:1002B0008200543469346D346534203445346C34F0
:1002C000613470347334653464343A342034003427
:1002D000D30001308A005308703E03188A0A820056
:1002E0004C346F346734203449346E3466346F34A0
:1002F00072346D346134743469346F346E34003464
:100300008B018B170B16831606309F007330860007
:100310005C30870088018901283085008312C13054
:100320009F0085018601870188013F30AE000030C3
:10033000AF000730B0002D30B1001230B2001530E0
:10034000B300AD010830A900AA00AB00D401D5016B
:10035000D1018526832764235108FF3C0319FE2120
:10036000432AD722CC2123246E24A127A2010301F2
:1003700022087E20003A0319C029B327A20AB8290F
:100380000A128A150020071057200A128A11162512
:100390005B230A128A153A29A1275730B3273A302E
:1003A000B3274E08D200F12115224F30B3273A303F
:1003B000B3274F084F08D200F1212030B327203057
:1003C000B3275030B3277230B3276530B32773306B
:1003D000B3277330B3272030B3272A30B32718242C
:1003E00008005208093C031CF629FA293130B327CA
:1003F0000A30D20252087220B3270800FF3083125D
:1004000003178D000313003003178C0083168C1321
:100410000C1555308D00AA308D008C148C180E2AC6
:100420000C11831203130D120800C030A42708001A
:10043000D30002308A005308203E03188A0A820043
:100440004C346F346734203431342C34323420341B
:100450006F347234203433340034D30002308A00D5
:100460005308353E03188A0A82002A342034743433
:100470006F34203463346F346E34743469346E34C2
:10048000753465340034A127A201030122088620B7
:10049000003A03194E2AB327A20A462A1522A201BE
:1004A000030122083020003A0319592AB327A20A6F
:1004B000512A861C592A061B642A861A642A061A9F
:1004C0007C2A8618612AB129A127A20103012208EA
:1004D0003C20003A03196F2AB327A20A672A152283
:1004E000A201030122082120003A03197A2AB32726
:1004F000A20A722A1824432AA127A2010301220872
:100500001822003A0319872AB327A20A7F2A152244
:10051000A201030122082D22003A0319922AB327CF
:10052000A20A8A2A8A01861C932ACF30A427060EA3
:100530000F39D5006720B32786189C2A861C9E2A6F
:10054000061E932A861E932A061B932A8618A62A1D
:10055000A92A5519BF2A551CB02AD51CB02ABF2A72
:1005600064235108003E031970231130D102013079
:10057000D5020318B12A74230A128A153A29A12731
:10058000A201030122083C20003A0319CA2AB3271A
:10059000A20AC22A1522A201030122082120003A40
:1005A0000319D52AB327A20ACD2A18247C2AA12709
:1005B0003130B3272D30B3275230B3276530B327FE
:1005C0007330B3276530B3277430B3272030B32797
:1005D0004230B3276130B3276C30B3276C30B32778
:1005E0007330B32715223230B3272D30B3274C3068
:1005F000B3276F30B3276130B3276430B32720307F
:10060000B3275030B3277230B3276530B327763025
:10061000B3276930B3276F30B3277530B3277330F2
:10062000B327861C112B061B432B861A432B061A55
:100630001D2B1A2BCE01CF011F2B5B231F2B8618DE
:100640001F2BA1274C30B3276F30B3276130B3275E
:100650006430B3272030B3274230B3276130B3274B
:100660006C30B3276C30B3277330B3271522A20147
:10067000030122082120003A0319412BB327A20AC3
:10068000392B18240800A127A201030122083C20CD
:10069000003A03194E2BB327A20A462B1522A201BA
:1006A000030122082120003A0319592BB327A20A7B
:1006B000512B1824D72A64235108003E03197023B4
:1006C0001130D10274230800FF30831203178D000C
:1006D00083168C130C1483120C080313D10008002A
:1006E0005108EE3ED1000800B9235208A900D10AF2
:1006F000B9235208AA00D10AB9235208AB00D10A83
:10070000B9235208B700D10AB9235208B800D10A58
:10071000B9235208B900D10AB9235208BA00D10A44
:10072000B9235208C100D10AB9235208C200D10A24
:10073000B9235208C300D10AB9235208C400D10A10
:10074000B9235208C500D10AB9235208C600D10AFC
:10075000B9235208C900D10AB9235208C800D10AE6
:10076000B9235208CE00D10AB9235208CF00D10ACA
:1007700008005108831203178D0083168C130C1484
:1007800083120C080313D2000800FE23FE23FE236D
:10079000FE23CE0A4E08D2005208133C031CCE01A1
:1007A0004E08D2005208093C031CE92BEB2BFE2318
:1007B000FE23FE23FE23CF0A4F08D2005208133C2B
:1007C000031CCF014F08D2005208093C031CE92B3F
:1007D000EB2B0A30D20252088519EC2B8918EE2B2C
:1007E00008000A128A1508008730A4001430A500FA
:1007F000A40BFB2BA50BF82BFD2B08001F30A4002E
:100800004F30A500A40B052CA50B022C072C0800CB
:100810001030F6007A30F7000630F800F60B112C95
:10082000F70B132CF80B0E2C152C00000000080001
:10083000861C182C061E1A2C861E182C061B182C1B
:100840008618202C0800AD01A127A201030122086F
:100850000F20003A03192F2CB327A20A272C1522A8
:10086000A201030122082120003A03193A2CB327E0
:10087000A20A322C861C3A2CCF30A427060E0F3940
:10088000A800A80A6720B3278618442C861C462C8B
:10089000061E3A2C861E3A2C061B3A2C86184E2C25
:1008A000512C2819562CA819562C0800A127A20152
:1008B000030122083C20003A0319612CB327A20A45
:1008C000592C1522A201030122082120003A031904
:1008D0006C2CB327A20A642C1824232CAD0AA12760
:1008E000A201030122084B20003A03197A2CB327F6
:1008F000A20A722C2D080F397220B3271522A201EB
:10090000030122082120003A0319892CB327A20AE7
:10091000812C861C892CCF30A427060E0F39061E89
:10092000AD2C861EAD2CA127A20103012208B02008
:10093000003A03199E2CB327A20A962C0A128A1198
:100940001522A201030122082120003A0319AB2C31
:10095000B327A20AA32C18246F2C2D1873262D1C44
:100960007726AC006720B3278618B42C861CB62CDB
:10097000061E892C861E892C061B892C8618BE2CE7
:1009800028082D02031C6E2CC724E0240800A12790
:10099000A201030122085B20003A0319D22CB327DD
:1009A000A20ACA2C29086720B3272C30B3272A08AB
:1009B0006720B3272C30B3272B086720B327080004
:1009C0001522A201030122089720003A0319EB2CFB
:1009D000B327A20AE32C861CEB2C003083120313EE
:1009E000F300D22683120313750821277708BF006E
:1009F0007808C000013083120313F300D22683125B
:100A00000313750821277708BD007808BE0002305F
:100A100083120313F300D2268312031375082127D0
:100A20007708BB007808BC00AD010800A12744305E
:100A3000B3276F30B3276E30B3276530B32700304C
:100A400083120313F300D2268312031375082127A0
:100A50007708C5007808C600013083120313F3003D
:100A6000D22683120313750821277708C30078085C
:100A7000C400023083120313F300D226831203133F
:100A8000750821277708C1007808C2001522A20145
:100A9000030122082120003A0319512DB327A20A8D
:100AA000492D1824A1273230B3273030B327063020
:100AB00083120313F300D226831203137508212730
:100AC0007708B3277808B3272F30B3270530831270
:100AD0000313F300D2268312031375082127770826
:100AE000B700B3277808B800B3272F30B3270430F6
:100AF00083120313F300D2268312031375082127F0
:100B00007708B900B3277808BA00B327C030A42704
:100B100041086F2642086F263A30B32743086F26F4
:100B200044086F263A30B32745086F2646086F26DB
:100B3000A20103012208D720003A0319A22DB327EE
:100B4000A20A9A2DFF30831203178D0083168C138F
:100B50000C1483120C080313D00057262908D20066
:100B60005D26D00A57262A08D2005D26D00A5726CD
:100B70002B08D2005D26D00A57263708D2005D2602
:100B8000D00A57263808D2005D26D00A57263908E1
:100B9000D2005D26D00A57263A08D2005D26D00A38
:100BA00057264108D2005D26D00A57264208D200B7
:100BB0005D26D00A57264308D2005D26D00A572664
:100BC0004408D2005D26D00A57264508D2005D268B
:100BD000D00A57264608D2005D2640084602031C6C
:100BE0001F2EC8003F084502031C1B2EC9003E08EB
:100BF0004402031C172ECA003D084302031C132E97
:100C0000CB003C084202031C0F2ECC003B084102E3
:100C1000031C0C2ECD00232E1830C107062EC10355
:100C20000A30C207012EC2030630C307FC2DC303DE
:100C30000A30C407F72DC4030630C507F22DC503DB
:100C40000A30C607ED2DD00A57264908D2005D2686
:100C5000D00A57264808D2005D26D00A57264E08EB
:100C6000D2005D26D00A57264F08D2005D26D00A52
:100C700003015008FF3C0319D00140261824080046
:100C8000FF30831203178D000313500803178C00E5
:100C900083168C130C1555308D00AA308D008C14E2
:100CA0008C18502E0C11831203130D1208005008DB
:100CB000831203178D0003130800520803178C00DA
:100CC00083168C130C1555308D00AA308D008C14B2
:100CD0008C18682E0C11831203130D1208000F39A3
:100CE0007220B3270800AD187B2EA9000800AD1CA8
:100CF0000800AA000800AB00080086187D2E080036
:0A0D00001430A500A50B822E080098
:060D0A008316031394019F
:100D100018308316031393000830831203139400D2
:100D200094168316031311151119942E08008316B7
:100D30000313111411189A2ED03083120313930049
:100D4000831603131419A22E831603138316031399
:100D5000111BCB2E8312031373088312031393000A
:100D6000831603131419B22E831603138316031369
:100D7000111BCB2E831203137408831203139300E9
:100D8000831603131419C22E831603138316031339
:100D9000111BCB2ECC2E0000831603131115111935
:100DA000CF2E08008316031311141118D52ED0303E
:100DB000831203139300831603131419DD2E831675
:100DC000031383160313111B1A2F831203137308C3
:100DD000831203139300831603131419ED2E831645
:100DE000031383160313111B1A2F83160313911475
:100DF0009118F82ED1308312031393008316031336
:100E00001419002F8316031383160313111B1A2FB3
:100E100083160313911591190B2F831203131308D3
:100E200083120313F5008316031391161116111A7A
:100E3000172F1B2F000083160313111511191E2FD6
:100E4000080083120313F600760E0F39303EF700C8
:100E50008312031376080F39303EF800080083161A
:100E6000031311141118322F10308312031393003F
:100E70008316031314193A2F8316031383160313CF
:100E8000111B532F83120313700883120313930053
:100E90008316031314194A2F83160313831603139F
:100EA000111B532F532F8316031311151119562F8E
:100EB000080083160313111411185C2F11308312CC
:100EC00003139300831603131419642F831603135B
:100ED00083160313111B7D2F83160313911591198C
:100EE0006F2F83120313130883120313F00083166A
:100EF000031391161116111A7B2F83160313111564
:100F00001119802F080083128815C427C427C4270D
:100F10003330A427C427C4273230A427C427C427CA
:100F20002830A427C427C4270C30A427C427C427EB
:100F30000630A427C427C4270130A427C427C42708
:100F400008000130A42708000811F400F0398800D7
:100F50008815C4278811740EF03988008815C427B5
:100F60008811C42708000815F5007508F039043EFB
:100F700088008815C4278811750EF039043E880052
:100F80008815C427881108001430F300FF30F200E0
:0A0F9000F20BC82FF30BC62F080068
:10100000032011203120AD180E282D1C08280B2894
:101010002908AC0008002A08AC0008002B08AC0026
:1010200008002C1D14282228AC1819282C181C285C
:101030001F283008B40030282F08B40030282E08AC
:10104000B4003028AC1827282C182A282D2833085B
:10105000B40030283208B40030283108B4003028F9
:1010600008000630B600B6036820B40DC12036195A
:101070003328B618332836183328252107102D18A1
:101080004A28AD184A284C20AD0A28082D02031C16
:10109000002808005720442805142F212F212F2134
:1010A0000510252111211B21071C4C2808000710C1
:1010B00005140121051005142F21112111212521CD
:1010C00005102F212F212F212521071C5B28080027
:1010D000B41E6B286F2891207320CF03F52873204E
:1010E0009120CE03F5283230B500B50388140810DE
:1010F00005110615EF208814081405110611EF20BC
:101100008810081405150611EF2088100810051521
:101110000615EF20351875288814081005110615D6
:1011200008003230B500B503881408100511061503
:10113000EF208810081005150615EF2088100814F8
:1011400005150611EF208814081405110611EF206B
:101150008814081005110615EF20881008100515D1
:101160000615EF208810081405150611EF208814C5
:10117000081405110611EF20881408100511061532
:101180000800B5038716871009108717F320871604
:10119000871409108713F320871287140914871303
:1011A000F3208712871009148717F32087168710FA
:1011B00009108717F3208716871409108713F32067
:1011C0008712871409148713F320871287100914D4
:1011D0008717F320871687100910871708002F211B
:1011E00011211B2108002521080025212521252169
:1011F00025212521252125212521252125212521BF
:1012000008008830F600BD30F7000330F800F60B18
:101210000A29F70B0C29F80B07290E2900000000FA
:101220000800DF30A4002F30A500A40B1829A50B5F
:1012300015291A2908008730A4001430A500A40B32
:101240002229A50B1F29242908001F30A4004F3094
:10125000A500A40B2C29A50B29292E2908009E30B6
:10126000A4001030A500A40B3629A50B332938297A
:10127000000008000A128A11A1273130B3272D304F
:10128000B3275030B3276130B3277430B32774309D
:10129000B3276530B3277230B3276E30B32773306E
:1012A000B32715223230B3272D30B3274230B3276E
:1012B0006130B3276C30B3276C30B3277330B3275A
:1012C0002030B3273330B3272D30B3274D30B32729
:1012D0006F30B3277230B3276530B3270A128A15EF
:1012E000861C70297829061AA32C861ABD29F62C8B
:1012F000061B7F29061E7329861E73297F298321D9
:101300000A128A153A290A128A11A1274930B327ED
:101310006E30B3277630B3276130B3276C30B327F4
:101320006930B3276430B3272030B3274930B3275F
:101330006E30B3277030B3277530B3277430B327BE
:1013400015222A30B3272030B3277430B3276F30EB
:10135000B3272030B3276330B3276F30B3276E3005
:10136000B3277430B3276930B3276E30B327753095
:10137000B3276530B327182408000A128A11A12761
:101380003130B3272D30B3274430B3276130B32732
:101390007430B3276530B3272030B3274530B327E7
:1013A0006E30B3276430B3276530B3276430B3277A
:1013B00015223230B3272D30B3275430B32769308C
:1013C000B3276D30B3276530B3272030B3273330D0
:1013D000B3272D30B3274D30B3276F30B32772308A
:1013E000B3276530B3270A128A15861CF529FD2913
:1013F000061A672C861A472A082A061B042A061E84
:10140000F829861EF829042A83210A128A15BD2983
:101410000A128A11A1277D263230B3273030B32734
:101420003130B3273330B3272F30B3273708B327F2
:101430003808B3272F30B3273908B3273A08B32722
:10144000C030A42741086F2642086F263A30B327E0
:1014500043086F2644086F263A30B32745086F26A5
:1014600046086F262030B3275030B3277230B32799
:101470006530B3277330B3277330B3272030B327D9
:101480002A30B32718247D260A128A15BD290A128C
:101490008A11A1273130B3272D30B3274E30B3271F
:1014A0006530B3277730B3272030B3274F30B327C9
:1014B0007030B3276530B3277230B3276130B3275C
:1014C0007430B3276930B3276F30B3276E30B3273A
:1014D00015223230B3272D30B3274D30B3276F306C
:1014E000B3277230B3276530B3270A128A15861CDA
:1014F000772A7D2A061A8B2A862A061B822A861AB2
:10150000822A7A2A83210A128A15472A0A128A1104
:101510008A110A1280290A128A11A1273130B327B1
:101520002D30B3274430B3276F30B3277730B3273C
:101530006E30B3276C30B3276F30B3276130B327D9
:101540006430B3272030B3276C30B3276F30B32714
:101550006730B3277330B32715223230B3272D30CD
:10156000B3274D30B3276F30B3277230B3276530C0
:10157000B3270A128A15861CBB2AC12A061A3A29E1
:10158000CA2A061BC62A861AC62ABE2A83210A121E
:101590008A158B2A0A128A11A1272A30B3274230D2
:1015A000B3277530B3277330B3277930B3272A3088
:1015B000B3278312D1010A128A117423831688017A
:1015C0000F309900980183129817181683169816F1
:1015D0008312A0010A128A150D3060230D3060239A
:1015E0000D3060230D3060234C3060236F3060235A
:1015F0006730602320306023493060236E306023E1
:10160000663060236F306023723060236D3060235A
:101610006130602374306023693060236F30602351
:101620006E3060235B23A00144306023613060236F
:10163000743060236530602320306023463060239F
:10164000693060236E30602369306023733060231B
:101650006830602365306023643060233A30602353
:1016600020306023323060233030602331306023FB
:10167000333060232F30602337086023380860231D
:101680002F306023390860233A086023203060231C
:1016900041086023420860233A30602343086023F6
:1016A000440860233A3060234508602346086023DD
:1016B00020306023692B0A3060230D30602308003E
:1016C00099008316981C622B83120800303E602319
:1016D0000800A00150306023613060237430602323
:1016E0007430602365306023723060236E30602375
:1016F00073306023203060235330602365306023D3
:101700006C30602365306023633060237430602365
:1017100065306023643060233A30602320306023DA
:101720009C2BD200D219982B521D9A2B52080800DC
:10173000D201962BD20A962B2908912366232C30AE
:1017400060232A08912366232C3060232B089123E1
:10175000662320306023A0012008573060236830C2
:10176000602369306023743060236530602320304B
:1017700060234C3060236530602366306023743012
:1017800060233A30602320306023D22B5208093C7A
:10179000031CCB2BCF2B313060230A30D2025208EE
:1017A000662308004E08D200C6230D306023A00136
:1017B00020084F30602372306023613060236E3028
:1017C00060236730602365306023203060234C3015
:1017D00060236530602366306023743060233A30C4
:1017E0006023203060234F08D200C62320306023BE
:1017F000A001200854306023693060236D306023DD
:101800006530602320306023453060236C306023D6
:101810006130602370306023733060236530602353
:10182000643060233A306023203060234908662307
:1018300048086623733060235108FF3C0319262CA7
:101840000A128A1174230A128A15122B8312981312
:101850000A128A11A1274430B3276F30B3276E30A4
:10186000B3276530B3272030B3274430B3276F3018
:10187000B3277730B3276E30B3276C30B3276F3080
:10188000B3276130B3276430B3276930B3276E3094
:10189000B3276730B32715222A30B3272030B32768
:1018A0007430B3276F30B3272030B3277230B3279B
:1018B0006530B3277430B3277530B3277230B32740
:1018C0006E30B32718247D260A128A158B2A0A1235
:1018D0008A11A1277D265430B3276930B3276D3094
:1018E000B3276530B3272030B3277430B327613076
:1018F000B3276B30B3276530B3276E30B327203062
:10190000B32749086F2648086F267330B32715227E
:101910002A30B3272030B3277430B3276F30B32772
:101920002030B3277230B3276530B3277430B32724
:101930007530B3277230B3276E30B32718247D2655
:101940000A128A15BD290A128A11A1277D26313073
:10195000B3272D30B3275730B3276830B32769300A
:10196000B3277430B3276530B32715223230B3273D
:101970002D30B3274F30B3277230B3276130B327F0
:101980006E30B3276730B3276530B3270A128A1544
:10199000861CC82C061ECD2CD92C0A128A11A12710
:1019A0000A128A154E08D2005208093C031CE52C85
:1019B000EC2C0A128A11A1270A128A154F08D200AC
:1019C0005208093C031CE52CEC2C0A128A11013048
:1019D0007220B3270A30D20252080A128A110F3934
:1019E0007220B3277D260A128A151E2D0A128A112B
:1019F000A1275030B3276130B3277430B327743038
:101A0000B3276530B3277230B3276E30B3277330F6
:101A1000B3273A30B3272030B32729086720B327EC
:101A20002C30B3272A086720B3272C30B3272B0884
:101A30006720B3277D260A128A151E2D0A128A11E5
:101A400015222A30B3272030B3277430B3276F30E4
:101A5000B3272030B3277230B3276530B3277430F3
:101A6000B3277530B3277230B3276E30B3271824ED
:101A70007D260A128A153A290A128A11861508004B
:044000000034003454
:02400E00723FFF
:00000001FF
